:100000000C9442140C9473140C9473140C94731485
:100010000C9473140C9473140C9473140C94731444
:100020000C9473140C9473140C9473140C94731434
:100030000C9473140C9473140C9473140C94731424
:100040000C9473140C9450230C9473140C94731428
:100050000C9473140C9473140C94CE210C94EC2017
:100060000C9473140C949B680C9473140C94731478
:100070000C9473140C9473140C9473140C947314E4
:100080000C94C92A0C9473140C9473140C94731468
:100090000C94A5380C94CE380C9473140C947314EF
:1000A0000C9473140C9473140C949B2A0C94731476
:1000B0000C9473140C9473140C9473140C946D2A94
:1000C0000C9473140C9473140C9473140C94731494
:1000D0000C9473140C9473140C9473140C94731484
:1000E0000C947314084AD73B3BCE016E84BCBFFD11
:1000F000C12F3D6C74319ABD56833DDA3D00C77FF8
:1001000011BED9E4BB4C3E916BAAAABE0000008090
:100110003F05A84CCDB2D44EB93836A9020C50B91F
:10012000918688083CA6AAAA2ABE000000803F0744
:10013000634236B79BD8A71A39685618AEBAAB5582
:100140008C1D3CB7CC5763BD6DEDFD753EF6177247
:1001500031BF000000803F08000000BE9224491219
:100160003EABAAAA2ABECDCCCC4C3E00000080BE3D
:10017000ABAAAAAA3E00000000BF000000803F001A
:1001800000000000084178D3BB4387D1133D190E0E
:100190003CC3BD4282AD2B3E68EC8276BED98FE176
:1001A000A93E4C80EFFFBE01C4FF7F3F000000006E
:1001B00000000C9471AC0C94581A0C9464CE0C94FE
:1001C00072CD0C9443AC0C94F8190C94BBC40C94F1
:1001D0006C1A0C94A6CD0C940F690C940CC50C945D
:1001E00007CF0C948ACB0C945EAC0C9426C70C946D
:1001F0002A690C94A4C50C946CAC0C94F3C80C94B0
:1002000034CB0C9434690C9483B00C943F1A0C9446
:1002100062C20C94E6AB0C9456CF0C9495B00C943F
:1002200098B00C941E690C9491C80C94D2CC0C9488
:1002300051C40C94FFD00C94FECA0C94BACB0C940D
:10024000801A0C945CC90C94A1B00C9436C90C941F
:100250008DC40C940FC50C94B9C60C94DCD20C94CC
:10026000C2C80C9417690C94DD180C94D9CF0C9467
:10027000DACB0C9405C70C94C5C30C941B1A0C94D0
:10028000B3C70C9493CF0C94C3C10C9408C80C94BE
:1002900050CC0C9484CC0C9474C60C94B8CC0C94B4
:1002A000FD190C94A8C00C9460C80C9431AC0C944B
:1002B0008FB00C94B0CE0C94AAD10C9476AC0C9464
:1002C0006DC50C94D6680C94B8BF0C945FC50C94A3
:1002D0004CAC0C9428C50C946CC10C9412CC0C94AE
:1002E00063CF0C9426690C94C8D00C948CB00C94F9
:1002F0007FC30C94E8CA0C9422690C9450AC0C9403
:10030000F0190C9420CD0C942B1A0C94231A0C94F5
:100310008D320C943FC90C940BC40C9468AC0C94B3
:1003200067C40C9406CC0C94ACC10C94071A0C94C2
:1003300006D50C9483C10C9480B00C941ECC0C9404
:100340006ACC0C943AC90C9408C00C943FC00C942D
:100350007AC50C9429C60C9464AC0C9446AC0C94ED
:100360009ECC0C947DB00C949ACB0C94621A0C9495
:10037000CFC50C940BC10C9400CF0C9489B00C9495
:100380007DC40C9450C90C9424C90C943FAC0C94BB
:100390007FC00C9484CD0C9407CA0C942E690C94E5
:1003A00042C20C9456AC0C9444C90C948ECA0C9462
:1003B00068C00C94BAD00C9472CB0C94CEC90C9437
:1003C000ECCC0C9498C20C9437AC0C9440CA0C94AE
:1003D0008A1A0C949CCD0C9486B00C94BFC00C94DB
:1003E000351A0C9407C50C9443C10C945AAC0C9468
:1003F00058B00C9406C20C94491A0C9478C20C9410
:1004000001690C9495C90C94F4C20C942FC80C94F7
:1004100052BE0C9472AC0C94A3C40C94A2CE0C9457
:100420003BAC0C9439C30C94DC180C949EB00C9427
:10043000FACB0C94AFC20C949BB00C94761A0C942B
:10044000111A0C9406CD0C94ECD00C9492B00C9430
:10045000DFC64E414E494E495459494E46CDCCCC4B
:100460003D0AD7233C17B7D13877CC2B329595E688
:10047000241FB14F0A000020410000C84200401C68
:100480004620BCBE4CCA1B0E5AAEC59D7400407AB5
:1004900010F35A00A0724E18090010A5D4E800000D
:1004A000E87648170000E40B54020000CA9A3B00AB
:1004B0000000E1F505000080969800000040420F22
:1004C000000000A08601000000102700000000E8E6
:1004D00003000000006400000000000A00000000AB
:1004E000000100000000002C76D888DC674F08234C
:1004F000DFC1DFAE59E1B1B796E5E3E453C63AE6B2
:1005000051997696E8E6C28426EB898C9B62ED4091
:100510007C6FFCEFBC9C9F40F2BAA56FA5F49005E0
:100520005A2AF75C936B6CF9676DC11BFCE0E40D14
:1005300047FEF520E6B500D0ED902E030094357708
:10054000050080841E080000204E0A000000C80C30
:10055000333333330F986E12831141EF8D21148999
:100560003BE65516CFFEE6DB18D1844B381BF77CF3
:100570001D901DA4BBE424203284725E228100C938
:10058000F124ECA1E53D27434F4D4D554E494341E4
:1005900054494F4E0044525952554E004552524F05
:1005A000525300494E464F004543484F004D3131AC
:1005B0003820413120616374696F6E3A70617573E0
:1005C0006500656E7175657565696E67202200202E
:1005D000496E76616C6964206578747275646572C1
:1005E00020000000000000000000000000000000EB
:1005F0005C4300005C4300007A4342696C696E65AD
:100600006172204C6576656C696E6720477269641B
:100610003A0A004731205830205930205A323020D1
:100620004634353030004D353030004D34323020D6
:100630005331205A313000202844525952554E2906
:1006400000473239204175746F20426564204C6543
:1006500076656C696E67003F20284C2C522C462C26
:100660004229206F7574206F6620626F756E647307
:100670002E0A003F2856296572626F7365206C65EB
:1006800076656C20697320696D706C617573696241
:100690006C652028302D34292E0A00426164205ACE
:1006A0002076616C75650A004E6F2062696C696E18
:1006B00065617220677269640A0050726F746563C5
:1006C0007465642050696E0A005374616E646172CF
:1006D0006420446576696174696F6E3A2000205227
:1006E000616E67653A2000204D61783A2000204D08
:1006F000696E3A20004D65616E3A200046696E6968
:1007000073686564210A002072616E67653A200093
:10071000206D61783A2000206D696E3A20002073C8
:1007200069676D613A2000206D65616E3A20003A7C
:10073000207A3A2000206F662000205A00205900BD
:10074000205800476F696E6720746F3A00436C6FE2
:10075000636B776973650A00436F756E7465722DFC
:100760000020446972656374696F6E3A200020202E
:1007700020616E676C653A20005374617274696E13
:1007800067207261646975733A2000506F736974F1
:10079000696F6E696E67207468652070726F62653C
:1007A0002E2E2E0A003F4E756D626572206F6620F8
:1007B0006C65677320696E206D6F76656D656E740C
:1007C000206E6F7420706C61757369626C6520288F
:1007D000302D3135292E0A003F2028582C59292048
:1007E0006F7574206F6620626F756E64732E0A00D9
:1007F0003F53616D706C652073697A65206E6F740C
:1008000020706C61757369626C652028342D3530F9
:10081000292E0A004D3438205A2D50726F626520FF
:100820005265706561746162696C697479205465A0
:1008300073740A003F2856296572626F7365206CD5
:100840006576656C20697320696D706C617573697C
:10085000626C652028302D34292E0A0020573A007A
:1008600020573A00205A3A0020593A0020436F7529
:100870006E7420583A0020453A00205A3A00205918
:100880003A00583A003A004361703A005741524EDC
:10089000494E4721204C6F77205A204A65726B20C1
:1008A0006D6179206C65616420746F20756E77616D
:1008B0006E746564207061757365732E0A00205A2A
:1008C00000205900580020204D61783A2000205A1D
:1008D00000205900580020204D696E3A20004F6ECC
:1008E00020004F666600536F667420656E647374F3
:1008F0006F70733A20003A200020536572766F20A3
:1009000000206F7574206F662072616E67650A0043
:10091000536572766F2000496E76616C696420655C
:10092000787472756465720A0020643A0020693A2E
:100930000020703A004B64200023646566696E6590
:100940002044454641554C545F004B6920002364C8
:100950006566696E652044454641554C545F004BC1
:1009600070200023646566696E65204445464155E4
:100970004C545F00504944204175746F74756E6526
:100980002066696E697368656421205075742074EF
:100990006865206C617374204B702C204B6920615A
:1009A0006E64204B6420636F6E7374616E74732089
:1009B00066726F6D2062656C6F7720696E746F2050
:1009C000436F6E66696775726174696F6E2E680A2F
:1009D00000504944204175746F74756E65206661DE
:1009E000696C6564212074696D656F75740A0045D2
:1009F0003120544845524D414C2052554E415741AB
:100A0000590042454420544845524D414C205255CE
:100A10004E4157415900546865726D616C205275A2
:100A20006E617761790045312048656174696E6750
:100A3000206661696C656400426564206865617464
:100A4000696E67206661696C6564004865617469F8
:100A50006E67206661696C65640050494420417589
:100A6000746F74756E65206661696C6564212054CD
:100A7000656D706572617475726520746F6F206842
:100A80006967680A00204B643A2000204B693A20CD
:100A900000204B703A20000A20436C617373696335
:100AA00020504944200A002054753A2000204B75FC
:100AB0003A2000206D61783A2000206D696E3A205E
:100AC0000020643A200020626961733A2000504996
:100AD00044204175746F74756E652073746172740F
:100AE0000A00504944204175746F74756E65206624
:100AF00061696C6564212042616420657874727557
:100B0000646572206E756D6265720A004F66660AD2
:100B10000046616465204865696768742000426525
:100B200064204C6576656C696E6720004661696C6F
:100B3000656420746F20656E61626C652042656437
:100B4000204C6576656C696E670A004D6573682098
:100B5000706F696E742063616E6E6F7420626520C1
:100B60007265736F6C7665640A004D3432312069AA
:100B70006E636F727265637420706172616D65740B
:100B800065722075736167650A0047322F4733200D
:100B900062616420706172616D65746572730A00D0
:100BA000486F6D652058592066697273740A002079
:100BB0005A3A200020593A200042656420583A20D1
:100BC000004D65736820706F696E742063616E6E8E
:100BD0006F74206265207265736F6C7665640A00BD
:100BE000456E642066696C65206C6973740A004206
:100BF0006567696E2066696C65206C6973740A00AC
:100C00004D3230303300286E6F2066696C652900E4
:100C100043757272656E742066696C653A20005384
:100C200044207072696E74696E6720627974652001
:100C3000004E6F74205344207072696E74696E6741
:100C40000A002569730025696D20256973002569EF
:100C5000682025696D202569730025696420256950
:100C6000682025696D20256973002569792025692B
:100C700064202569682025696D20256973005072FC
:100C8000696E742074696D653A20006F666600A80D
:100C900005A3059C059505870544454255473A003F
:100CA0004D3131332053006F6B002C20002C20007D
:100CB000544845524D414C5F50524F54454354495E
:100CC0004F4E004155544F5245504F52545F53447C
:100CD0005F53544154555300454D455247454E438B
:100CE000595F50415253455200434153455F4C496F
:100CF0004748545F4252494748544E455353005465
:100D00004F47474C455F4C494748545300534F4663
:100D100054574152455F504F574552004255494C38
:100D2000445F50455243454E54004C4556454C494E
:100D30004E475F44415441005A5F50524F42450074
:100D40004155544F4C4556454C005052494E545F06
:100D50004A4F420050524F47524553530041555459
:100D60004F5245504F52545F54454D5000564F4CD2
:100D7000554D455452494300454550524F4D00533F
:100D8000455249414C5F584F4E5F584F46460046CA
:100D900049524D574152455F4E414D453A4D617262
:100DA0006C696E20312E312E3920284769746875A0
:100DB000622920534F555243455F434F44455F5589
:100DC000524C3A68747470733A2F2F67697468755F
:100DD000622E636F6D2F4D61726C696E4669726D24
:100DE000776172652F4D61726C696E2050524F545D
:100DF0004F434F4C5F56455253494F4E3A312E3078
:100E0000204D414348494E455F545950453A33447B
:100E1000205072696E74657220455854525544458D
:100E2000525F434F554E543A3120555549443A6329
:100E3000656465326132662D343161322D34373468
:100E4000382D396231322D633535633632663336AB
:100E50003766660A002F2F200020540020520041E0
:100E60006363656C65726174696F6E3A20500054FB
:100E70006F6F206661722066726F6D2072656665A5
:100E800072656E636520706F696E740A0020466C2F
:100E90006F773A2000000136372603FFFFFF353C0D
:100EA0003D380EFFFFFF312E303E23FFFFFFFF28AE
:100EB000FF0C0809FFFFFF1A1C18FFFF2A08440A4D
:100EC000FF4343290A0061626C656420286D696EE6
:100ED0002074656D702000436F6C642065787472B7
:100EE0007564657320617265200020643A00206992
:100EF0003A0020703A004E6F2063617365206C6980
:100F00006768740A00454550524F4D204F4B0A0008
:100F10003F5A206F7574206F662072616E6765207E
:100F2000282D323020746F203230290A003A2000F8
:100F300050726F6265205A204F6666736574004177
:100F400063746976652045787472756465723A20B9
:100F500000496E76616C69642065787472756465A9
:100F6000720A0047312045313030204631303000A0
:100F7000473932204530004D3833004D313036206E
:100F80005330004D35303000473239004732380099
:100F9000526573656E643A20006F6B0020746F6F4A
:100FA000206C6F6E6720657874727573696F6E2040
:100FB00070726576656E7465640A0020636F6C6498
:100FC00020657874727573696F6E207072657665CE
:100FD0006E7465640A00627573793A207061757386
:100FE000656420666F7220696E7075740A006275A0
:100FF00073793A2070617573656420666F7220752D
:101000007365720A00627573793A2070726F636556
:101010007373696E670A004B494C4C2063617573AA
:10102000656420627920746F6F206D756368206934
:101030006E6163746976652074696D65202D206327
:10104000757272656E7420636F6D6D616E643A20A7
:10105000004D3235004D33310053442072656164D8
:10106000206572726F720A00446F6E65207072693B
:101070006E74696E672066696C650A005072696EED
:101080007465722073746F70706564206475652078
:10109000746F206572726F72732E204669782074A7
:1010A0006865206572726F7220616E642075736569
:1010B000204D39393920746F2072657374617274F0
:1010C0002E202854656D7065726174757265206993
:1010D000732072657365742E2053657420697420C3
:1010E00061667465722072657374617274696E678B
:1010F000290A004E6F20436865636B73756D207716
:10110000697468206C696E65206E756D6265722CFD
:10111000204C617374204C696E653A20004E6F203C
:10112000436865636B73756D2077697468206C69BB
:101130006E65206E756D6265722C204C6173742033
:101140004C696E653A2000636865636B73756D204A
:101150006D69736D617463682C204C617374204CED
:10116000696E653A20004C696E65204E756D62654A
:1011700072206973206E6F74204C617374204C6907
:101180006E65204E756D6265722B312C204C61733B
:1011900074204C696E653A20004D313130000000FA
:1011A00000000000000000000000000048420000B5
:1011B000484200008040000000005761726E696E76
:1011C000673A20486F6D696E672042756D702044E4
:1011D000697669736F72203C20310A0002020400B4
:1011E00000A0400000A0400000004000005C430060
:1011F000005C4300007A43FFFFFF7C3C3E5E2B3DDA
:101200003F2F5B5D3B2C2A225C004572726F72207F
:1012100077726974696E6720746F20454550524F2C
:101220004D210A00454550524F4D20646174617351
:10123000697A65206572726F722E0A00290A002091
:1012400062797465733B2063726320005365747424
:10125000696E67732053746F726564202800290AD1
:10126000002062797465733B2063726320002073F1
:10127000746F7265642073657474696E677320722D
:101280006574726965766564202800202863616C46
:1012900063756C6174656429210A0020213D20007A
:1012A000454550524F4D20435243206D69736D6147
:1012B000746368202D202873746F72656429200080
:1012C0002053697A653A2000496E6465783A2000B7
:1012D000204D61726C696E3D563535290A002845EE
:1012E0004550524F4D3D00454550524F4D2076657B
:1012F0007273696F6E206D69736D6174636820002D
:1013000048617264636F6465642044656661756CEE
:10131000742053657474696E6773204C6F616465E3
:10132000640A00E8030000E803000064000000B85D
:101330000B000000009643000096430000A0400010
:1013400000C8410000A0420000A0420000C843CDF8
:10135000ACCD433A0A002028696E290020286D6D23
:10136000290020204D383531205A005A2D50726FF7
:101370006265204F66667365740020440020490052
:1013800020204D33303420500020440020490020DC
:10139000204D33303120500050494420736574741F
:1013A000696E67733A0A00205A00204A00202047DD
:1013B00032392057204900205A0020204D34323045
:1013C0002053004175746F20426564204C6576653A
:1013D0006C696E673A0A00205A0020590020204D9F
:1013E000323036205800486F6D65206F6666736531
:1013F000743A0A00204500205A0020590020580065
:1014000020540020530020204D3230352051002040
:10141000453C6D61785F655F6A65726B3E00205880
:101420003C6D61785F785F6A65726B3E20593C6DF8
:1014300061785F795F6A65726B3E205A3C6D6178B6
:101440005F7A5F6A65726B3E00416476616E6365C8
:10145000643A20513C6D696E5F7365676D656E74AB
:101460005F74696D655F75733E20533C6D696E5F97
:1014700066656564726174653E20543C6D696E5F9B
:1014800074726176656C5F66656564726174653EF1
:101490000020540020520020204D323034205000D3
:1014A000416363656C65726174696F6E2028756E47
:1014B0006974732F7332293A20503C7072696E74CC
:1014C0005F616363656C3E20523C72657472616358
:1014D000745F616363656C3E20543C747261766531
:1014E0006C5F616363656C3E0A00204500205A0012
:1014F00020590020204D3230312058004D6178694C
:101500006D756D20416363656C65726174696F6EA2
:101510002028756E6974732F7332293A0A002045AA
:1015200000205A0020590020204D3230332058002E
:101530004D6178696D756D2066656564726174656D
:10154000732028756E6974732F73293A0A00204539
:1015500000205A0020590020204D393220580053D5
:10156000746570732070657220756E69743A0A0034
:1015700020204D3230302044300A0020204D3230BF
:10158000302044002044697361626C65640A00463F
:10159000696C616D656E742073657474696E6773D0
:1015A0003A00203B0020204732005452494747452B
:1015B000524544006F70656E003A200066696C61A8
:1015C0006D656E74007A5F6D696E00795F6D696E2E
:1015D00000785F6D696E005265706F7274696E6736
:1015E00020656E6473746F70207374617475730A10
:1015F0000020746F6F206C6F6E6720657874727551
:1016000073696F6E2070726576656E7465640A002A
:1016100020636F6C6420657874727573696F6E20D7
:1016200070726576656E7465640A006F70656E2011
:101630006661696C65642C2046696C653A20004DD2
:1016400032342053256C64004D323320257300471B
:10165000323820523020583020593000473932205B
:101660005A2573204525730024F4D43050C38E20AE
:10167000C2A24017828B7011127A910D816CD90A27
:10168000A861E108C7586607615143061E4B5D0516
:10169000C145A7041A411104093D9803713931036A
:1016A0004036DB0265339102D4305402802E1D0295
:1016B000632CEE01752AC501B028A0011027810115
:1016C0008F2564012B244B01E0223401AC211F0142
:1016D0008D200D01801FFC00841EED00971DDF0092
:1016E000B81CD200E61BC600201BBC00641AB20066
:1016F000B219A8000A19A0006A189900D117910020
:1017000040178B00B516840031167E00B3157900A2
:101710003A157300C7146F0058146A00EE13660080
:101720008813630025135E00C7125B006C1257001C
:1017300015125400C111510070114F0021114B00BE
:10174000D61049008D104700461044000210420098
:10175000C00F4000800F3E00420F3C00060F3B00D0
:10176000CB0E3800930E37005C0E3500270E340088
:10177000F30D3200C10D3100900D3000600D2E00D0
:10178000320D2D00050D2C00D90C2B00AE0C2900BC
:10179000850C29005C0C2700350C27000E0C260058
:1017A000E80B2400C40B2400A00B23007D0B2300B6
:1017B0005A0B2100390B2100180B2000F80A1F00DA
:1017C000D90A1E00BB0A1E009D0A1D00800A1D00CA
:1017D000630A1C00470A1B002C0A1B00110A1A008E
:1017E000F7091A00DD091900C4091900AB0919002D
:1017F000920917007B091800630917004C091600AD
:1018000036091600200916000A091500F50815000A
:10181000E0081400CC081400B8081400A408140050
:10182000900813007D0812006B081300580812007E
:101830004608120034081100230811001208110094
:1018400001081100F0071000E0071000D007100099
:10185000C0071000B0070F00A107100091070E008D
:1018600083070F0074070F0065070E0057070E006F
:1018700049070E003B070D002E070E0020070D0044
:1018800013070D0006070D00F9060C00ED060D000C
:10189000E0060C00D4060C00C8060C00BC060C00C8
:1018A000B0060C00A4060B0099060C008D060B0078
:1018B00082060B0077060B006C060B0061060A001F
:1018C00057060B004C060A0042060A0038060A00BA
:1018D0002E060A0024060A001A060A00100609004D
:1018E00007060A00FD050900F4050900EB050900DB
:1018F000E2050900D9050900D0050900C70509005E
:10190000BE050900B5050800AD050800A5050900DC
:101910009C050800940508008C0508008405080053
:101920007C050800740508006C05070065050800C3
:101930005D050700560508004E050700470507002E
:101940004005080038050700310507002A05070093
:10195000230507001C050600160507000F050700F4
:101960000805060002050700FB040600F504070051
:10197000EE040600E8040600E2040700DB040600AB
:10198000D5040600CF040600C9040600C3040600FF
:10199000BD040600B7040600B1040500AC0406004F
:1019A000A6040600A00405009B040600950405009B
:1019B000900406008A0405008504050080040600E2
:1019C0007A04050075040500700405006B04050029
:1019D00066040500610405005C0405005704050069
:1019E000520405004D0405004804050043040500A9
:1019F0003E0404003A0405003504050030040400E8
:101A00002C04050027040400230405001E04040020
:101A10001A04040016040500110404000D04040057
:101A2000090405000404040000040400FC0304008D
:101A3000F8030400F4030400F0030400EC030400C2
:101A4000E8030400E4030400E0030400DC030400F2
:101A5000D8030400D4030400D0030400CC03040022
:101A6000C8030300C503030024F404D9201BC40CDD
:101A70005C0E9804C4095F0265077101F405F90062
:101A8000FB04B30048048700C103690058035500F4
:101A900003034500BE023A008402310053022A00CB
:101AA0002902250004022000E4011C00C8011900DD
:101AB000AF01170098011400840113007101100098
:101AC0006101100051010E0043010D0036010B00B1
:101AD0002B010B0020010B00150109000C0109006E
:101AE00003010800FB000800F3000800EB000700FA
:101AF000E4000600DE000600D8000600D200060062
:101B0000CC000500C7000500C2000500BD000400B0
:101B1000B9000400B5000400B1000400AD000400E9
:101B2000A9000400A5000300A20003009F00040018
:101B30009B0003009800030095000200930003003F
:101B4000900003008D0002008B000300880002005B
:101B50008600020084000300810002007F00020072
:101B60007D0002007B000200790002007700010086
:101B70007600020074000200720001007100020091
:101B80006F0002006D0001006C0002006A0001009D
:101B900069000200670001006600010065000100A5
:101BA00064000200620001006100010060000100A9
:101BB0005F0002005D0001005C0001005B000100AD
:101BC0005A000100590001005800010057000100AF
:101BD00056000100550001005400010053000000B0
:101BE00053000100520001005100010050000100AB
:101BF0004F0001004E0000004E0001004D000100AA
:101C00004C0001004B0000004B0001004A000100A5
:101C100049000100480000004800010047000100A1
:101C2000460000004600010045000000450001009C
:101C30004400010043000000430001004200000096
:101C4000420001004100000041000100400001008D
:101C50003F0000003F0001003E0000003E00010088
:101C60003D0000003D0001003C0000003C00000081
:101C70003C0001003B0000003B0001003A00000076
:101C80003A0001003900000039000100380000006E
:101C90003800000038000100370000003700010064
:101CA000360000003600000036000100350000005C
:101CB0003500000035000100340000003400000051
:101CC0003400010033000000330000003300010045
:101CD000320000003200000032000100310000003C
:101CE0003100000031000100300000003000000031
:101CF000300001002F0000002F0000002F00000026
:101D00002F0001002E0000002E0000002E00010018
:101D10002D0000002D0000002D0000002D0001000E
:101D20002C0000002C0000002C0000002C00010002
:101D30002B0000002B0000002B0000002B000100F6
:101D40002A0000002A0000002A0000002A000100EA
:101D500029000000290000002900000029000000DF
:101D600029000100280000002800000028000000D1
:101D700028000000280001002700000027000000C4
:101D800027000000270000002700010026000000B7
:101D900026000000260000002600000026000100AA
:101DA000250000002500000025000000250000009F
:101DB0002500000025000100240000002400000090
:101DC0002400000024000000240001002300000083
:101DD0002300000023000000230000002300000077
:101DE0002300000023000100220000002200000068
:101DF000220000002200000022000000220001005A
:101E0000210000002100000021000000210000004E
:101E1000210000002100000021000100200000003E
:101E20002000000020000000200000002000000032
:101E30002000000020000000200001001F00000022
:101E40001F0000001F0000001F0000001F00000016
:101E50001F0000001F0001001E0000001E00000007
:101E60001E0000001E000000043700001E290000B4
:101E7000511B00005810000010090000CC040000A5
:101E800078020000410100006265640A002C2073A2
:101E9000797374656D2073746F7070656421204868
:101EA00065617465725F49443A2000426564206848
:101EB000656174696E67206661696C656400486578
:101EC0006174696E67206661696C656400453120E4
:101ED00048656174696E67206661696C6564004875
:101EE000656174696E67206661696C656400700184
:101EF0002C0190012701B0012201C0011D01F00158
:101F000018011002130130020E0160020901900253
:101F10000401C002FF000003FA004003F500800343
:101F2000F000D003EB002004E6007004E100E004C0
:101F3000DC004005D700C005D2004006CD00D00629
:101F4000C8008007C3003008BE00F008B900C0090F
:101F5000B400B00AAF00B00BAA00D00CA500000E70
:101F6000A000500F9B00C01096005012910000146A
:101F70008C00C0158700B0178200B0197D00D01BFF
:101F80007800001E730040206E0090226900F0244B
:101F9000640040275F0090295A00E02B5500102E66
:101FA000500020304B0010324600E03341009035A5
:101FB0003C001037370070383200A0392D00B03A9D
:101FC0002800A03B2300603C1E00103D1900903DFE
:101FD0001400103E0F00703E0A00C03E0500003F96
:101FE0000000403FFBFF803FF6FFC03FF1FF45315F
:101FF00020544845524D414C2052554E415741596D
:102000000042454420544845524D414C2052554EC3
:102010004157415900546865726D616C2052756E6C
:1020200061776179004531204572723A204D4158FF
:1020300054454D50004572723A204D415854454D1B
:102040005020424544004D415854454D5020747233
:1020500069676765726564004531204572723A2090
:102060004D494E54454D50004572723A204D494EEF
:1020700054454D5020424544004D494E54454D5025
:1020800020747269676765726564004D3834205842
:102090002059205A204500202F002042403A00209D
:1020A000403A0000002100240027002A002D0030C3
:1020B00000330001010000040107010A01000022B1
:1020C00000250028002B002E003100340002010002
:1020D00000050108010B0100002000230026002953
:1020E000002C002F0032000001000003010601094E
:1020F0000105050505070508080808020202020A8D
:102100000A0808040404040101010101010101039A
:1021100003030303030303040707070C0C0C0C0C55
:102120000C0C0C0202020206060606060606060B48
:102130000B0B0B0B0B0B0B010210202008081020BF
:102140004010204080020102010804020101020443
:102150000810204080804020100804020180040202
:102160000180402010080402010804020101020459
:102170000810204080010204081020408000000A5E
:102180000B02090C0D0E08070304010000000000FB
:10219000000000000000000000000000000000003F
:1021A00000000000000000000012111000000000FC
:1021B000000000000000000000000000000000001F
:1021C0000000002020506C616E6E6572427566667C
:1021D000657242797465733A200020467265652005
:1021E0004D656D6F72793A2000436F6D70696C6553
:1021F000643A204D617920203920323032310A0092
:10220000207C20417574686F723A20286E6F6E656D
:102210002C2064656661756C7420636F6E666967F7
:10222000290A00323031382D30382D303100204C21
:1022300061737420557064617465643A2000312EB6
:10224000312E390A004D61726C696E0020536F6641
:1022500074776172652052657365740A0020576156
:10226000746368646F672052657365740A00204266
:10227000726F776E206F75742052657365740A00F3
:102280002045787465726E616C2052657365740ABE
:1022900000506F77657255700A0073746172740A2A
:1022A000004D32303030004732382058300047314E
:1022B000205A313000473931004D31313820413119
:1022C00020616374696F6E3A63616E63656C004D83
:1022D0003234004D3233202573006175746F2569E7
:1022E0002E67006572726F722077726974696E670B
:1022F00020746F2066696C650A00205A3A002059E4
:102300003A0020583A00656E6473746F70732068E9
:1023100069743A2000446F6E6520736176696E6758
:102320002066696C652E0A004D323900556E6B6E61
:102330006F776E20636F6D6D616E643A202200507E
:10234000726F62696E67206661696C65640A00205D
:102350005A3A200020593A200042656420583A2019
:10236000005072696E7465722073746F707065646A
:102370002064756520746F206572726F72732E20F1
:1023800046697820746865206572726F7220616E8C
:102390006420757365204D39393920746F2072655A
:1023A00073746172742E202854656D706572617447
:1023B0007572652069732072657365742E2053658C
:1023C000742069742061667465722072657374612B
:1023D0007274696E67290A0053544F502063616C10
:1023E0006C65642062656361757365206F66204269
:1023F0004C546F756368206572726F72202D207265
:102400006573746172742077697468204D39393945
:102410000A002066697273740A005A005900580055
:10242000486F6D6520004D313036205025692053AE
:102430002569004D31303920532569004D3139303F
:102440002053256900256C75206820256C75206D4A
:10245000004D353031004D353030004D32303132A5
:10246000004D31303920532569004D323031310073
:102470004D3330332043313020452D312053363019
:10248000205531004D313036205330004D3230313F
:1024900031004D333033204331302045302053322A
:1024A0003030205531004D31303620533235350033
:1024B0004D353031004D353030004D353032004D26
:1024C000353031004D353031004D353030004D382C
:1024D00034004D3231312053310047302058302004
:1024E0005930204633303030004730205A313000E8
:1024F0004D32303130004D323131205330004730D1
:1025000020593131302058313130205A3020463373
:102510003030300047393000473238004D323030EB
:1025200039004D31393020532569004D3130362086
:102530005330004D3530300047302058302059306E
:10254000205A313020463330303000473020583068
:10255000205930204633303030004730205A313057
:10256000004D353030004D3231312053310047318C
:10257000205A3130004731205A300047312058313D
:10258000313020593131302046333030300047313E
:10259000205A313000473238004731205A30004746
:1025A00031205833302059313930204633303030E3
:1025B000004731205A313000473238004731205A25
:1025C00030004731205831393020593139302046D8
:1025D00033303030004731205A3130004732380034
:1025E0004731205A30004731205831393020593393
:1025F00030204633303030004731205A31300047E8
:102600003238004731205A300047312058333020CB
:10261000593330204633303030004731205A313082
:1026200000473238004D32303036004D32303035D0
:10263000004D31303920532569004D32303035009E
:102640004D32303034004D31303920532569004D42
:1026500032303034004D31313820413120616374E3
:10266000696F6E3A726573756D65004D3230303149
:1026700000473238004732380025753A2530327528
:1026800000253032753A2530327500506F7765720B
:102690002D6C6F73732066696C6520777269746541
:1026A000206661696C65642E0A006F70656E206635
:1026B00061696C65642C2046696C653A200057722C
:1026C0006974696E6720746F2066696C653A2000D2
:1026D00053442063617264206F6B0A006F70656EF3
:1026E000526F6F74206661696C65640A00766F6C66
:1026F000756D652E696E6974206661696C65640A22
:1027000000534420696E6974206661696C0A005741
:10271000726974696E6720746F2066696C653A200F
:10272000006F70656E206661696C65642C20466977
:102730006C653A20006F70656E206661696C656437
:102740002C2046696C653A200046696C65207365EB
:102750006C65637465640A002053697A653A2000E9
:1027600046696C65206F70656E65643A200020666E
:10277000696C653A2000646F696E67006672657304
:1027800068004E6F772000454E4420535542524F0B
:102790005554494E450A002220706F730022207064
:1027A0006172656E743A2200535542524F55544936
:1027B0004E452043414C4C207461726765743A2247
:1027C00000747279696E6720746F2063616C6C208D
:1027D0007375622D67636F64652066696C6573202D
:1027E0007769746820746F6F206D616E79206C65F5
:1027F00076656C732E204D4158206C6576656C2093
:1028000069733A005072696E7465722068616C7405
:1028100065642E206B696C6C28292063616C6C6583
:1028200064210A004572726F723A0043616E6E6FE6
:1028300074206F70656E2073756264697220006524
:1028400063686F3A0044656C6574696F6E206661F9
:10285000696C65642C2046696C653A200046696C99
:10286000652064656C657465643A006F70656E2000
:102870006661696C65642C2046696C653A200000CD
:1028800006D5DCD211241FBECFEFD1E2DEBFCDBF13
:1028900000E00CBF14E0A0E0B2E0E4EBFCED01E0EE
:1028A0000BBF02C007900D92AA3FB107D9F72DE1E7
:1028B000AAEFB4E001C01D92A937B207E1F714E115
:1028C000C1E4D4E100E006C021970109802FFE0198
:1028D0000E94C1EDC034D10780E00807A9F70E942B
:1028E000EAD50C9448EE0C9400003FB7F894809120
:1028F000E0119091E111A091E211B091E31126B5A0
:10290000A89B05C02F3F19F00196A11DB11D3FBF27
:10291000BA2FA92F982F8827BC01CD01620F711DF6
:10292000811D911D42E0660F771F881F991F4A95F0
:10293000D1F7089590916F00292F227091FF05C063
:1029400090916F009D7F90936F0034E0839FC00152
:102950001124FC01E059FE4E408151816281738156
:102960008C599E4EFC01408351836283738381E0C6
:1029700080936311222329F080916F0082608093FD
:102980006F000895BC012091611130916211409156
:102990006111509162112417350731F481E0261737
:1029A000370709F080E008959A01F1CF8091F5187A
:1029B0009091F618891B8F7019F490E080E00895CB
:1029C0009091F218992351F0833030F48FEF890FF2
:1029D00019F08093F218F1CF1092F2188091F61846
:1029E0002DE4829FC0011124865B934FFC0120815E
:1029F00020FDE3CF2091F6182F5F2F702093F3185E
:102A00003091F6182091F418321304C02091F31875
:102A10002093F41808954F925F926F927F928F9255
:102A20009F92AF92BF92EF92FF920F931F93CF931B
:102A3000DF93C7EAD7E083E6E82E84E1F82E07E9C2
:102A400017E0412C512C320143946991799189917D
:102A50009991F70181909190A190B1907F010E948E
:102A60006DE2A50194010E94CEE20E94A6EAF8015F
:102A700061937193819391938F014616570668066F
:102A8000790610F42B013C01F7E0C73BDF07E9F6BC
:102A90006FEF7FEFCB01A30192010E94CFE820935B
:102AA0009307309394074093950750939607DF91CF
:102AB000CF911F910F91FF90EF90BF90AF909F909B
:102AC0008F907F906F905F904F900895CF93DF939A
:102AD00090916F00292F227091FF05C090916F0097
:102AE0009D7F90936F0094E0899FA0011124FA01CB
:102AF000E059FE4E6081718182819381222329F009
:102B000020916F00226020936F00EA01C954D84FD2
:102B10000E946FE2288139814A815B810E94CEE266
:102B2000DF91CF910895CF92DF92EF92FF92809143
:102B30006214882309F457C0C0905007D090510701
:102B4000E0905207F090530720E030E0A901C70160
:102B5000B6010E9468E2882309F445C020E030E015
:102B600040E05FE3C701B6010E94CEE29B01AC01E9
:102B70000E94CEE22BED3FE049E450E40E94CEE219
:102B80009B01AC0160E070E080E89FE30E942DEAC9
:102B90006B017C01C0924C07D0924D07E0924E072A
:102BA000F0924F076091530270915402072E000C6F
:102BB000880B990B0E946FE22AE037ED43E25CE359
:102BC0000E94CEE2A70196010E94CEE2609320020D
:102BD000709321028093220290932302FF90EF9042
:102BE000DF90CF900895C12CD12C80E8E82E8FE3A0
:102BF000F82ED0CF8F929F92AF92BF92CF92DF925A
:102C0000EF92FF92CF93DF93EC0180909B13909013
:102C10009C13A0909D13B0909E1320E030E0A9017A
:102C2000C501B4010E9468E2882309F454C0C88039
:102C3000D980EA80FB80A7019601C501B4010E94FA
:102C400068E218160CF04CC0209192133091931347
:102C50004091941350919513C701B6010E9468E208
:102C6000882331F1C0929213D0929313E09294137F
:102C7000F0929513209196133091971340919813E9
:102C800050919913688179818A819B810E94CEE25B
:102C90009B01AC0160E070E080E89FE30E9432E9B4
:102CA00060931C0270931D0280931E0290931F027A
:102CB00060911C0270911D0280911E0290911F0272
:102CC000DF91CF91FF90EF90DF90CF90BF90AF90CA
:102CD0009F908F90089560E070E080E89FE3F0CFD0
:102CE00060E070E0CB01ECCFCF93DF938091EC11EB
:102CF000811105C08091ED11882309F45BC080919A
:102D00004B07659951C0816080934B0790910301F7
:102D100080914B0791FD4AC0826080934B07809160
:102D20004B07329945C08B7F80934B07C09154115C
:102D3000C0FF10C080911A1180FF0CC080914B071A
:102D400080FF08C08091FF1181608093FF1180E0B7
:102D50000E949A14C1FF10C080911A1181FF0CC00B
:102D600080914B0781FF08C08091FF1182608093A2
:102D7000FF1181E00E949A14C2FF1CC080911A11B9
:102D800082FF18C08091ED118823A1F080914B073C
:102D900082FF10C08091FF1184608093FF1182E058
:102DA000DF91CF910C949A148E7FAECF8D7FB5CFEB
:102DB0008460BACFDF91CF910895CF92DF92EF92E6
:102DC000FF92CF93DF93EC01C0909506D0909606CA
:102DD000E0909706F0909806A701960168817981A6
:102DE0008A819B810E9468E287FF04C0C882D982E1
:102DF000EA82FB82C0909906D0909A06E0909B06EA
:102E0000F0909C06A70196016C817D818E819F8147
:102E10000E9468E287FF04C0CC82DD82EE82FF82DE
:102E2000C0901002D0901102E0901202F0901302B4
:102E3000A7019601688179818A819B810E9493EB29
:102E4000181624F4C882D982EA82FB82C090140248
:102E5000D0901502E0901602F0901702A70196019B
:102E60006C817D818E819F810E9493EB181624F4E2
:102E7000CC82DD82EE82FF82C0909D06D0909E06BD
:102E8000E0909F06F090A006A701960168857985DD
:102E90008A859B850E9468E287FF04C0C886D98620
:102EA000EA86FB86C0901802D0901902E0901A02C0
:102EB000F0901B02A7019601688579858A859B851C
:102EC0000E9493EB181624F4C886D986EA86FB86FE
:102ED000DF91CF91FF90EF90DF90CF900895CF9347
:102EE000DF9380E00E946615CDEFD5E0688379839B
:102EF0008A839B8381E00E9466156C837D838E8329
:102F00009F8382E00E946615688779878A879B87FE
:102F1000DF91CF910895CF92DF92EF92FF9260916F
:102F2000B7067091B806072E000C880B990B0E940B
:102F30006FE26B017C012DEB37E346E855EB0E9415
:102F400093EB87FD0BC02DEB37E346E855E3C70154
:102F5000B6010E9468E218160CF043C0A701960162
:102F600060E070E080E89FE30E942DEA6093F50541
:102F70007093F6058093F7059093F8056091B90674
:102F80007091BA06072E000C880B990B0E946FE215
:102F90006B017C012DEB37E346E855EB0E9493EB88
:102FA00087FD0AC02DEB37E346E855E3C701B601BC
:102FB0000E9468E21816CCF4A701960160E070E068
:102FC00080E89FE30E942DEA6093F9057093FA056B
:102FD0008093FB059093FC05FF90EF90DF90CF90DE
:102FE000089560E070E0CB01C1CF60E070E0CB01FC
:102FF000EBCF8091210590912205A0912305B091FE
:10300000240580934F0290935002A0935102B093F5
:10301000520280911F059091200590935602809353
:103020005502089580914F0290915002A091510253
:10303000B09152028093210590932205A09323051D
:10304000B0932405809155029091560290932005EB
:1030500080931F0584E690E090935602809355027A
:1030600008950F931F93CF93DF9394E0899FE0011E
:1030700011248E010A571C4EFE01E151FE4EDE0165
:10308000AF55B94F2D913D914D915C91608171810A
:10309000828193810E9433E9F80160837183828386
:1030A0009383FE01EE51FA4F85919591A591B491CC
:1030B000FE01EB56F94F80839183A283B383FE0117
:1030C000E251FA4F85919591A591B491C05FDD4F82
:1030D00088839983AA83BB83DF91CF911F910F913E
:1030E000089590912C06E92FF0E0E550FE4E808384
:1030F0009F5F943040F490932C06809181138F5FF2
:1031000080938113089510922C06F7CF2FEB280F90
:103110002A3108F042C0E22FF0E0809145059091FD
:103120004605A0914705B091480504C0B695A795FE
:10313000979587952A95D2F780FD02C081700895F2
:10314000E55DFA4FE081EE2329F1809183139091A0
:103150008413E80FF92FF11D808190ED980F9A30BC
:1031600030F08E3251F4818180538A3098F4F0939C
:103170001E05E0931D0581E008958D3211F08B321C
:1031800049F4818190ED980F9A3088F38E3211F4D2
:103190008281EACFF0E0E0E0EACF80E008950E948B
:1031A0008618882341F081E020911D0530911E058D
:1031B000232B09F480E00895089590E080E00895BD
:1031C00080E1EDE8F4E1ADE7B4E101900D928A957C
:1031D000E1F708958091CF059091D0052FEF3FEF53
:1031E000981751F0E92FF0E0E15BFA4F208130E0D1
:1031F0009F5F9F779093D005C9010895CF92DF928A
:10320000EF92FF920F931F93CF93DF936B017A019D
:10321000EC01C95BD34F28813CE0389F8001399F86
:10322000100D112427FF24C0FB0111821082888118
:103230008F5F888388819801280F311D87FD3A951B
:10324000C90120918719F6012817190629F024F0E1
:1032500088818C300CF43CC080819181049680344C
:103260009C4908F475C0F60180819181049672C072
:1032700088819801280F311D87FD3A95C901209159
:1032800087192817190699F294F28881A801480F26
:10329000511D87FD5A95FA01EE0FFF1FE40FF51F30
:1032A000E55EF64E808186FFC2CF8881F801E80F87
:1032B000F11D87FDFA95CF01EE0FFF1FE80FF91FF3
:1032C000E55EF64E808160E08F730E94BCB5AFCFA3
:1032D000808191812881A801420F511D27FD5A95B7
:1032E0009A01FA01EE0FFF1FE20FF31FE55EF64EA3
:1032F00021813281820F931FF7019183808388811E
:103300009801280F311D87FD3A95F901EE0FFF1F37
:10331000E20FF31FE55EF64E808186FF20C08881B4
:10332000080F111D87FD1A95F801EE0FFF1FE00F22
:10333000F11FE55EF64E808161E08F73DF91CF91E2
:103340001F910F91FF90EF90DF90CF900C94BCB540
:1033500080E49CE9F701918380838FEF8883DF917C
:10336000CF911F910F91FF90EF90DF90CF90089534
:103370001F93CF93DF93182FEB0161E00E94EAB512
:10338000209739F460E0812FDF91CF911F910C9449
:10339000BCB5CF3FD10511F461E0F5CFE12FF0E0EE
:1033A000E358FE4DE491E150E23108F0B3C0F0E0A3
:1033B0008827E252F64E8F4F0C94C1EDF019F819A0
:1033C000FD19071A111A8A1A1B1A231A2B1A351AF1
:1033D0003F1A491A581A621A8A1A6C1A761A801AEF
:1033E00084B5806884BDC7BDDF91CF911F910895DA
:1033F00084B5806284BDC8BDF7CF809180008068AD
:1034000080938000D0938900C0938800EDCF809195
:103410008000806280938000D0938B00C0938A00EC
:10342000E3CF80918000886080938000D0938D00EE
:10343000C0938C00D9CF8091B00080688093B00099
:10344000C093B300D1CF8091B00080628093B00070
:10345000C093B400C9CF80919000806880939000A1
:10346000D0939900C0939800BFCF80919000806264
:1034700080939000D0939B00C0939A00B5CF809129
:103480009000886080939000D0939D00C0939C0032
:10349000ABCF8091A00080688093A0008091A000B5
:1034A0008F7B8093A000D093A900C093A8009CCFED
:1034B0008091A00080628093A000D093AB00C09365
:1034C000AA0092CF8091A00088608093A000D09342
:1034D000AD00C093AC0088CF8091200180688093BC
:1034E0002001D0932901C09328017ECF8091200133
:1034F000806280932001D0932B01C0932A0174CF66
:1035000080912001886080932001D0932D01C09389
:103510002C016ACFC038D1050CF03ECF33CFCF930A
:1035200020918113243090F4C62FBC0190912C0679
:1035300020E6929FC001112480509E4E0E9419EEF9
:103540008C2F0E94711881E0CF91089580E0FCCF0C
:103550004F925F926F927F928F929F92AF92BF92A3
:10356000CF92DF92EF92FF92CF93DF93CDB7DEB78A
:103570006A970FB6F894DEBF0FBECDBF9A8F898FC2
:103580005B014A01DC01D7966D917D918D919C91F3
:10359000DA970E946DE26B017C01F5012081318197
:1035A000428153810E94CEE20E9411EA0E94A6EA63
:1035B0003B015C01D4012D913D914D915C91C7017E
:1035C000B6010E94CEE20E9411EA0E94A6EA6D8234
:1035D0007E82AF82B8862D813E814F815885283703
:1035E00031054105510540F428E730E040E050E066
:1035F0002D833E834F83588769837A838B839C8393
:1036000089819A81AB81BC8188379105A105B1057B
:1036100040F428E730E040E050E029833A834B83D0
:103620005C83E98DFA8DED5BFF4F80819181A281F2
:10363000B38189879A87AB87BC87BC01CD010E9483
:103640006FE22B013C016D817E818F8198850E9404
:103650006DE2698B7A8B8B8B9C8B20E030E0A9012B
:10366000C301B2010E9468E2882309F43BC1A701AB
:103670009601C701B6010E94CEE24B015C01298987
:103680003A894B895C89CA01B9010E94CEE29B014B
:10369000AC01C501B4010E9432E94B015C01A301F8
:1036A0009201C301B2010E9433E99B01AC01C50143
:1036B000B4010E942DEA0E9411EA0E94A6EA6D87D9
:1036C0007E878F87988B69857A858B859C85909579
:1036D0008095709561957F4F8F4F9F4F0E946FE24D
:1036E0004B015C0169817A818B819C810E946DE232
:1036F00069877A878B879C8720E030E0A901C50124
:10370000B4010E9468E2882309F4F0C029853A8553
:103710004B855C85CA01B9010E94CEE26D8B7E8B20
:103720008F8B988FA7019601C701B6010E94CEE248
:103730009B01AC016D897E898F89988D0E9432E949
:103740006B017C01A5019401C501B4010E9433E91C
:103750009B01AC01C701B6010E942DEA0E94D5EA87
:10376000A98DBA8D95968D909D90AD90BC909897AF
:10377000750164012D853E854F855889C21AD30A8B
:10378000E40AF50A0E94A6EAC61AD70AE80AF90A64
:10379000F7FE6EC020E030E0A901C301B2010E9433
:1037A00068E2882309F4A6C0C501B4010E946DE255
:1037B0006B017C01A3019201C301B2010E9433E9B4
:1037C0009B01AC01C701B6010E94CEE26B017C01F6
:1037D00029893A894B895C89CA01B9010E94CEE2E4
:1037E0009B01AC01C701B6010E9432E96B017C016B
:1037F00029853A854B855C85CA01B9010E94CEE2D4
:103800009B01AC01C701B6010E9433E96B017C0149
:1038100020E030E040E850E4C301B2010E94CEE273
:103820009B01AC01C701B6010E942DEA0E9411EA7A
:103830006B017C0120E030E0A9010E9493EB181697
:103840001CF0C12CD12C7601C701B6010E94A6EA5A
:103850006D877E878F87988B86169706A806B90690
:1038600020F48D869E86AF86B88AC12CD12C760135
:103870008D859E85AF85B889E98DFA8D82A793A73E
:10388000A4A7B5A7C80ED91EEA1EFB1EDF01C6A657
:10389000D7A6E0AAF1AA2D813E814F81588523AF9A
:1038A00034AF45AF56AFDF9629813A814B815C81B9
:1038B0002D933D934D935C9313976A960FB6F894AE
:1038C000DEBF0FBECDBFDF91CF91FF90EF90DF90B5
:1038D000CF90BF90AF909F908F907F906F905F90B0
:1038E0004F90089560E070E0CB01E5CE60E070E0BD
:1038F000CB0134CF60E070E0CB0198CF4F925F9264
:103900006F927F928F929F92AF92BF92CF92DF92EF
:10391000EF92FF920F931F93CF93DF93EC0160918F
:10392000AD067091AE06072E000C880B990B0E9415
:103930006FE29B01AC01688179818A819B810E9441
:1039400032E96B017C016091AF067091B006072EE1
:10395000000C880B990B0E946FE29B01AC016C81FB
:103960007D818E819F810E9432E94B015C01A7011C
:103970009601609106027091070280910802909171
:1039800009020E9468E2882309F45AC0C092060224
:10399000D0920702E0920802F09209022091F50508
:1039A0003091F6054091F7055091F805C701B60131
:1039B0000E94CEE22B013C010E94D5EA6B017C0102
:1039C00020E030E0A9010E9468E287FD7AC020E093
:1039D00030E040EA50E4C701B6010E9493EB1816AC
:1039E00034F4C12CD12CC0EAEC2EC0E4FC2EA7018B
:1039F0009601C301B2010E9432E92B013C0120E093
:103A000030E0A9010E9468E287FD5FC04092F105A5
:103A10005092F2056092F3057092F405C701B60169
:103A20000E949FEA6093F005062E000C770B6F5FF3
:103A30007F4F6530710514F065E070E06093EF052D
:103A4000D09101021091F005A5019401609102024C
:103A50007091030280910402909105020E9468E235
:103A600081113CC0D11394C02091D1053091D20571
:103A70004091D3055091D4056091F1057091F20504
:103A80008091F3059091F4050E94CEE22091D50536
:103A90003091D6054091D7055091D8050E9433E961
:103AA000DF91CF911F910F91FF90EF90DF90CF901A
:103AB000BF90AF909F908F907F906F905F904F904E
:103AC0000895C12CD12C760192CF1092F10510925D
:103AD000F2051092F3051092F405A0CF8092020235
:103AE00090920302A0920402B09205022091F9057F
:103AF0003091FA054091FB055091FC05C501B401D8
:103B00000E94CEE24B015C010E94D5EA6B017C0170
:103B100020E030E0A9010E9468E287FDF9C020E0C2
:103B200030E040EA50E4C701B6010E9493EB18165A
:103B300034F4C12CD12CB0EAEB2EB0E4FB2EA7015B
:103B40009601C501B4010E9432E94B015C0120E0FD
:103B500030E0A9010E9468E287FDDEC08092EB059B
:103B60009092EC05A092ED05B092EE05C701B6016A
:103B70000E949FEA6093EA05062E000C770B6F5FA8
:103B80007F4F6530710514F065E070E06093E905E2
:103B9000C091EA05D11305C0809100028C1709F489
:103BA0006CC010930102C09300020C2E000CDD0BC0
:103BB00026E01203C0011124FC01EC0FFD1FEE0FE3
:103BC000FF1FEE0FFF1FE554F94F20813181428125
:103BD00053812093E5053093E6054093E705509324
:103BE000E8050091E905002E000C110BFC01E00F27
:103BF000F11FEE0FFF1FEE0FFF1FE554F94F60811D
:103C00007181828193810E9432E96093E105709312
:103C1000E2058093E3059093E4052091EF0536E0FB
:103C20002303F0011124CE0FDF1FCC0FDD1FCC0FBB
:103C3000DD1FC554D94F288139814A815B8120938A
:103C4000DD053093DE054093DF055093E005E00F7E
:103C5000F11FEE0FFF1FEE0FFF1FE554F94F6081BC
:103C60007181828193810E9432E96093D9057093BA
:103C7000DA058093DB059093DC058090EB0590904E
:103C8000EC05A090ED05B090EE052091E105309196
:103C9000E2054091E3055091E405C501B4010E949D
:103CA000CEE22091E5053091E6054091E70550917F
:103CB000E8050E9433E96B017C01C092D505D092E2
:103CC000D605E092D705F092D8052091D90530911C
:103CD000DA054091DB055091DC05C501B4010E9475
:103CE000CEE22091DD053091DE054091DF05509157
:103CF000E0050E9433E9A70196010E9432E9609332
:103D0000D1057093D2058093D3059093D405ACCEA2
:103D1000C12CD12C760113CF1092EB051092EC053B
:103D20001092ED051092EE0521CFCF92DF92EF9227
:103D3000FF92CF93DF9320919A13222329F1EC0174
:103D400008960E94FA156B017C0120E030E0A90181
:103D50000E9468E220E030E0A901882359F0CE01FA
:103D60000E947E1C9B01AC01C701B6010E94CEE2FD
:103D70009B01AC01688579858A859B850E9432E923
:103D8000688779878A879B87DF91CF91FF90EF9033
:103D9000DF90CF9008958F929F92AF92BF92CF9273
:103DA000DF92EF92FF920F93CF93DF931F92CDB7E5
:103DB000DEB76C017B0149018091B1065B01A40E65
:103DC000B51E8823A1F0F60180819181480F591F0B
:103DD000518340830F90DF91CF910F91FF90EF902F
:103DE000DF90CF90BF90AF909F908F900895F60195
:103DF000808191810E9486E889839091B2069923FF
:103E000011F0002311F0F7018083BE016F5F7F4F37
:103E1000C4010E9444B3F60180819181019691838F
:103E20008083FFEFEF1AFF0AEA14FB0401F7D2CFF9
:103E300080911D0590911E05009731F04AE050E0F9
:103E400070E060E00C94BDDF60E070E0CB010895AD
:103E50000E94181F97FD0CC00E94181F6F3F71052C
:103E60008105910509F034F40E94181F862F0895EA
:103E700080E008958FEF089580911D0590911E05B3
:103E8000892B41F00E94281F91E0811101C090E030
:103E9000892F089591E0FCCF80911D0590911E051A
:103EA000009731F04AE050E070E060E00C94EBE005
:103EB00060E070E0CB0108950F931F93CF93809142
:103EC0001D0590911E050097E9F0FC018F01C1913D
:103ED0002C2F2F7D81F0C53411F0C536B9F7F801CC
:103EE000108270E060E00E945FDEF801C083CF9135
:103EF0001F910F91089570E060E0CF911F910F9195
:103F00000C945FDE60E070E0CB01F1CF86E40E94AC
:103F100086188093C011882351F00E945C1F609323
:103F20002E0270932F02809330029093310283E52A
:103F30000E948618882351F00E945C1F60932A0219
:103F400070932B0280932C0290932D0282E40E94A6
:103F50008618882351F00E945C1F6093260270939C
:103F6000270280932802909329020895CF93C82FA7
:103F70000E945C1FC33080F020916214222361F004
:103F800020915E1430915F1440916014509161143F
:103F90000E94CEE2CF91089520915A1430915B1483
:103FA00040915C1450915D14F3CF0E945C1F2091EE
:103FB0005A1430915B1440915C1450915D140E942E
:103FC000CEE20895BF92CF92DF92EF92FF920F93CD
:103FD0001F93CF93DF933BEFC32E32E0D32E4DE7F9
:103FE000E42E44E1F42E0DE814E1D0E0C0E0F60147
:103FF00081916F010E948618882309F45BC08C2F81
:104000000E94B61FFE01EA5DFA4F2081211104C013
:1040100020912A052223E9F1F80120813181428192
:1040200053810E9433E9F701608371838283938314
:104030002196F4E0EF0EF11C0C5F1F4FC430D10548
:10404000B1F686E40E94CF188823C9F00E94D51FDC
:1040500020E030E0A9010E9493EB181684F40E943E
:10406000D51F20E030E040E752E40E942DEA609343
:104070004F02709350028093510290935202DF914D
:10408000CF911F910F91FF90EF90DF90CF90BF9055
:104090000895F3E0CF1739F2FE01EE0FFF1FEE0F88
:1040A000FF1FEA57FC4E20813181428153810E94DB
:1040B00032E9B9CFF80180819181A281B381F70102
:1040C00080839183A283B383B3CF8F929F92AF9269
:1040D000BF92CF92DF92EF92FF926B017C010E9420
:1040E00075144B015C01C114D104E104F104B9F071
:1040F0000E947514681979098A099B09683E734002
:104100008105910580F321E0C21AD108E108F10888
:1041100088EE880E83E0981EA11CB11CE4CFFF90AE
:10412000EF90DF90CF90BF90AF909F908F900895C9
:104130002FB7F8946091DC117091DD118091DE1140
:104140009091DF112FBF0895CF92DF92EF92FF92EF
:10415000C0907914D0907A14E0907B14F0907C1485
:104160006091AA137091AB1365507109072E000C72
:10417000880B990B0E946FE2A70196010E9493EBB6
:1041800018160CF520E030E040E85FE3C701B60107
:104190000E9433E90E94A6EA7093B7116093B611AA
:1041A0000E94982060547B428E4F9F4F6093B211C3
:1041B0007093B3118093B4119093B511FF90EF9069
:1041C000DF90CF9008951092B2111092B311109217
:1041D000B4111092B511F2CF1F920F920FB60F9239
:1041E00011242F933F938F939F93AF93BF9380910D
:1041F000DC119091DD11A091DE11B091DF113091B1
:10420000DB1123E0230F2D3758F50196A11DB11DB9
:104210002093DB118093DC119093DD11A093DE11CC
:10422000B093DF118091E0119091E111A091E21122
:10423000B091E3110196A11DB11D8093E0119093FF
:10424000E111A093E211B093E311BF91AF919F915F
:104250008F913F912F910F900FBE0F901F90189547
:1042600026E8230F0296A11DB11DD2CF21E0209395
:10427000A0139093ED188093EC180C9498AE8F9245
:104280009F92AF92BF92CF92DF92EF92FF920F93E5
:104290001F93CF93DF93B0E4A0E06A2F70E0AB01EF
:1042A0004B0F511D559547954A1711F0B41319C07E
:1042B000ECEEFFE165917491072E000C880B990BD1
:1042C0000E946FE2DF91CF911F910F91FF90EF90CD
:1042D000DF90CF90BF90AF909F908F900895B42FB4
:1042E000DECF9A0121503109220F331F220F331FD5
:1042F000F901E251F14EE590F490F901EE50F14EE2
:10430000C591D4918E159F0554F3A42FC817D907D2
:104310000CF4C3CFF901E051F14E05911491F9016C
:10432000EC50F14EC590D490BC016E197F09072E58
:10433000000C880B990B0E946FE24B015C01B601E7
:10434000601B710B072E000C880B990B0E946FE20B
:104350009B01AC01C501B4010E94CEE24B015C019E
:10436000BE016E197F09072E000C880B990B0E9465
:104370006FE29B01AC01C501B4010E942DEA6B0103
:104380007C01B801110F880B990B0E946FE29B0111
:10439000AC01C701B6010E9433E994CF0F930FB768
:1043A0000F9300916E000B7F00936E0078940F9333
:1043B0000BB70F930CB70F921F922F933F934F930E
:1043C0005F936F937F938F939F93AF93BF93EF937D
:1043D000FF9311240E94E34DFF91EF91BF91AF91A4
:1043E0009F918F917F916F915F914F913F912F910D
:1043F0001F900F900CBF0F910BBF0F910460F894AA
:1044000000936E000F910FBF0F9118958F929F929E
:10441000AF92BF92CF92DF92EF92FF920F931F93D2
:10442000CF93DF93B0E4A0E06A2F70E0AB014B0FB5
:10443000511D55954795A41711F0B41319C0ECEE12
:10444000FFE165917491072E000C880B990B0E9477
:104450006FE2DF91CF911F910F91FF90EF90DF906E
:10446000CF90BF90AF909F908F900895B42FDECFE4
:104470009A0121503109220F331F220F331FF901F6
:10448000E251F14EE590F490F901EE50F14EC591F4
:10449000D4918E159F0554F3A42FC817D9070CF497
:1044A000C3CFF901E051F14E05911491F901EC509F
:1044B000F14EC590D490BC016E197F09072E000CF7
:1044C000880B990B0E946FE24B015C01B601601BE7
:1044D000710B072E000C880B990B0E946FE29B0159
:1044E000AC01C501B4010E94CEE24B015C01BE01EA
:1044F0006E197F09072E000C880B990B0E946FE242
:104500009B01AC01C501B4010E942DEA6B017C0145
:10451000B801110F880B990B0E946FE29B01AC014F
:10452000C701B6010E9433E994CF8091C3119091E5
:10453000C4110E943F216093EE187093EF1880938E
:10454000F0189093F1188091C1119091C2110E94BE
:1045500006226093791470937A1480937B1490935D
:104560007C14A8951092C51108950F931F93809104
:104570008C11813019F50E949820009184111091BE
:1045800085112091861130918711601B710B820B70
:10459000930B28EE33E040E050E00E94CFE86091BA
:1045A0008011709181118091821190918311620F1D
:1045B000731F841F951F1F910F910895609188119B
:1045C0007091891180918A1190918B11D6CF1092A0
:1045D0008C111092841110928511109286111092F4
:1045E0008711109288111092891110928A111092DD
:1045F0008B111092801110928111109282111092E1
:104600008311089580918C118130F1F08230C9F4CA
:104610000E94B52260938011709381118093821162
:104620009093831181E080938C110E949820609375
:10463000841170938511809386119093871181E086
:1046400008950E94E722EECF80E0089580918C11BA
:10465000813079F482E080938C110E9498206093DD
:1046600088117093891180938A1190938B1181E046
:10467000089580E0089580918C118150823070F40B
:1046800010928C110E949820609388117093891168
:1046900080938A1190938B1181E0089580E00895B2
:1046A0000F930FB70F9300916E000F930B7F009342
:1046B0006E0000916F000D7F00936F000F930BB79A
:1046C0000F930CB70F921F922F933F934F935F93CB
:1046D0006F937F938F939F93AF93BF93EF93FF93CA
:1046E00011240E94C923FF91EF91BF91AF919F9137
:1046F0008F917F916F915F914F913F912F911F907B
:104700000F900CBF0F910BBF0F910260F8940093B4
:104710006F000F9100936E000F910FBF0F911895CE
:1047200080911A1180FF25C0899A8FEF8093320201
:1047300080911A1181FF20C08F988FEF80933302F0
:1047400080911A1182FF1BC080910B0180958270AD
:10475000809309018FEF8093340280911A1183FFB7
:1047600015C0169A8FEF80933502000000000000FC
:104770000895899881E0DACF8F9A81E0DFCF809128
:104780000B0182708093090181E0E5CF169881E0EA
:10479000EACF2F923F924F925F926F927F928F92C9
:1047A0009F92BF92CF92DF92EF92FF920F931F934F
:1047B000CF93DF93F8948FEF9FEF909389008093CE
:1047C00088007AE0B72E312C212CE4E88E2EEEE121
:1047D0009E2E789480915D1190915E11A0915F1151
:1047E000B0916011892B8A2B8B2B09F0D5C1809158
:1047F00063118823D1F08091611190916211109220
:104800006311892B91F01092541110926211109241
:1048100061119091F5188091F618981731F08091F8
:10482000F6188F5F8F708093F618809161119091C8
:104830006211892B09F4B0C14091591150915A115C
:1048400060915B1170915C1180915511909156119E
:10485000A0915711B0915811C0904711D12CF12C53
:10486000E12C841B950BA60BB70BC816D906EA06DC
:10487000FB0610F4D701C601382F840F951FA61F21
:10488000B71F8093591190935A11A0935B11B09365
:104890005C1180918400909185004E9640912F117B
:1048A000509130116091311170913211C0901F11EF
:1048B000D0902011E0902111F09022114C0D5D1D3F
:1048C0006E1D7F1D40932F11509330116093311155
:1048D0007093321177FD1CC0889AC0907011D090EF
:1048E0007111E0907211F090731120913202422FF9
:1048F000220F550B660B770B4C0D5D1D6E1D7F1D3A
:1049000040937011509371116093721170937311F1
:1049100040913311509134116091351170913611DD
:10492000C0902311D0902411E0902511F090261111
:104930004C0D5D1D6E1D7F1D40933311509334113E
:10494000609335117093361177FD1CC08E9AC0901C
:104950007411D0907511E0907611F090771120913C
:104960003302422F220F550B660B770B4C0D5D1D4A
:104970006E1D7F1D409374115093751160937611D5
:10498000709377114091371150913811609139111E
:1049900070913A11C0902711D0902811E090291100
:1049A000F0902A114C0D5D1D6E1D7F1D4093371137
:1049B000509338116093391170933A1177FD21C0EB
:1049C00020910B012095287020930901C090781147
:1049D000D0907911E0907A11F0907B1120913402FF
:1049E000422F220F550B660B770B4C0D5D1D6E1D74
:1049F0007F1D409378115093791160937A117093D1
:104A00007B1140913B1150913C1160913D1170918F
:104A10003E11C0902B11D0902C11E0902D11F090F0
:104A20002E114C0D5D1D6E1D7F1D40933B1150934B
:104A30003C1160933D1170933E1177FD1CC0149A98
:104A4000C0907C11D0907D11E0907E11F0907F118C
:104A500020913502422F220F550B660B770B4C0D20
:104A60005D1D6E1D7F1D40937C1150937D116093E1
:104A70007E1170937F1140918400509185004817FA
:104A80005907C8F340912F115091301160913111A5
:104A90007091321177FD15C0C0901B11D0901C1180
:104AA000E0901D11F0901E114C195D096E097F09EF
:104AB00040932F1150933011609331117093321144
:104AC0008898409133115091341160913511709153
:104AD000361177FD15C0C0901B11D0901C11E090CD
:104AE0001D11F0901E114C195D096E097F0940934C
:104AF00033115093341160933511709336118E98A1
:104B000040913711509138116091391170913A11DB
:104B100077FD19C0C0901B11D0901C11E0901D11A1
:104B2000F0901E114C195D096E097F0940933711F1
:104B3000509338116093391170933A1120910B0101
:104B400028702093090140913B1150913C116091D4
:104B50003D1170913E1177FD15C0C0901B11D09092
:104B60001C11E0901D11F0901E114C195D096E0989
:104B70007F0940933B1150933C1160933D1170931A
:104B80003E111498315041F04091840050918500BD
:104B900048175907C8F381CE80915D1190915E113D
:104BA000A0915F11B0916011892B8A2B8B2B09F09A
:104BB00025C4E0916111F0916211309709F486C427
:104BC0008091591190915A11A0915B11B0915C1193
:104BD0004091551150915611609157117091581193
:104BE00084179507A607B70708F46EC010925411F2
:104BF00010926211109261119091F5188091F6183F
:104C0000981709F463C48091F6188F5F8F708093B2
:104C1000F61860EDC62E67E0D62EE12CF12C8091BF
:104C2000611190916211892B09F0E0C30E94D614A2
:104C30009093621180936111892B09F4D7C3C091BD
:104C40006111D0916211888183FF92C28D899E8902
:104C5000AF89B88D8093701190937111A0937211E8
:104C6000B0937311898D9A8DAB8DBC8D8093741127
:104C700090937511A0937611B09377118D8D9E8DC1
:104C8000AF8DB8A18093781190937911A0937A1188
:104C9000B0937B1189A19AA1ABA1BCA180937C1197
:104CA00090937D11A0937E11B0937F119091F51890
:104CB0008091F618981709F4B9CF8091F6188F5F94
:104CC0008F708093F618B2CF4091501150915111CE
:104CD0006091521170915311481759076A077B0769
:104CE00008F4D9C080914C1190914D11A0914E11B2
:104CF000B0914F1142A953A964A975A9CC27859FEA
:104D0000D12D969F9001A69F300DA59F200D311D9E
:104D1000869FD00D211D3C1F959FD00D211D3C1F4E
:104D2000A49FD00D211D3C1F949FD10D2C1F3C1F13
:104D3000D6952C1F3C1F789F200D311D799F300D7B
:104D4000112443AD54AD65AD76AD420F531F611DC7
:104D5000711D409348115093491160934A1170930B
:104D60004B11C7A8D0ACE1ACF2ACC416D506E60630
:104D7000F70640F4C0924811D0924911E0924A11CE
:104D8000F0924B11409048115090491160904A1197
:104D900070904B1128E63EE141E0F901C590D590B5
:104DA000E590F490C414D504E604F70450F4769426
:104DB000679457944794440F2C5F3F4F8216930695
:104DC00061F74093471120E24216510461047104D7
:104DD00028F420E2422E512C612C712C40E2441A1E
:104DE000510861087108411478E0570661047104A4
:104DF00008F42EC0F4E05F9E900111242859354E2E
:104E0000F901329645915491F42DEE27F59FB001AA
:104E1000F49F610D7E1F06946E1F7E1F1124AB014F
:104E200070E060E0F901C590D490F12CE12CC41A37
:104E3000D50AE60AF70A8C0D9D1DAE1DBF1D809395
:104E40004C1190934D11A0934E11B0934F11E7CE9A
:104E5000B301A20176956795579547959A012C7FE6
:104E60002859394EF901C590D490F90132964591EF
:104E70005491242D2770422E449E9001459E300D62
:104E8000112403E0369527950A95E1F7C21AD30A53
:104E9000F12CE12CD0CF40914311509144116091FD
:104EA000451170914611481759076A077B0708F0AA
:104EB000CFC080913F1190914011A0914111B091CC
:104EC000421142A953A964A975A92227859F312DB2
:104ED000969F6001A69FD00CA59FC00CD11C869FF9
:104EE000300DC11CD21E959F300DC11CD21EA49F37
:104EF000300DC11CD21E949F310DC21ED21E36959C
:104F0000C21ED21E789FC00CD11C799FD00C1124D8
:104F1000F12CE12C409148115091491160914A11B6
:104F200070914B11FF964080518062807380C4164F
:104F3000D506E606F70658F44C195D096E097F0997
:104F4000441655066606770610F42A013B0128E64A
:104F50003EE141E0F901C590D590E590F490C4148C
:104F6000D504E604F70450F4769467945794479474
:104F7000440F2C5F3F4F8216930661F74093471111
:104F800040E2441651046104710428F4C0E24C2E3E
:104F9000512C612C712C70E2471A5108610871087C
:104FA0004114F8E05F066104710408F42EC044E087
:104FB000549E900111242859354EF901329645919D
:104FC0005491F42DEE27F59FB001F49F610D7E1FE3
:104FD00006946E1F7E1F1124AB0170E060E0F901A2
:104FE000C590D490F12CE12CC41AD50AE60AF70A30
:104FF0008C0D9D1DAE1DBF1D80933F1190934011E0
:10500000A0934111B09342110ACEB301A20176954B
:105010006795579547959A012C7F2859394EF90184
:10502000C590D490F901329645915491242D277062
:10503000422E449E9001459E300D1124F3E036959A
:105040002795FA95E1F7C21AD30AF12CE12CD0CFBB
:105050008091370290913802A0913902B0913A02C2
:10506000B7FF5BC0C7A8D0ACE1ACF2AC88E69EE16C
:1050700021E0FC0145915591659174914C155D05B8
:105080006E057F0548F4F694E794D794C794220FF1
:1050900004968816990669F72093471140E2C416D2
:1050A000D104E104F10428F460E2C62ED12CE12CF5
:1050B000F12C70E2C71AD108E108F108C11488E0A8
:1050C000D806E104F10408F431C0A4E0DA9EC0017E
:1050D00011248859954EFC01329625913491BC2DAE
:1050E0006627B39FA001B29F410D561F0694461F2D
:1050F000561F112470E060E0FC0185919491B0E0AE
:10510000A0E0841B950BA60BB70B809337029093FE
:105110003802A0933902B0933A02C0903702D0907F
:105120003802E0903902F0903A0279CDD701C601F9
:10513000B695A795979587958C7F8859994EFC01D0
:1051400025913491FC01329645915491FC2DF770D4
:10515000F49FC001F59F900D112453E0969587951B
:105160005A95E1F7281B390BC901B0E0A0E0CDCF7B
:105170004D885E886F88788C81E041145104610409
:10518000710409F480E0C98CDA8CEB8CFC8CC114BE
:10519000D104E104F10409F082604D8D5E8D6F8DC4
:1051A00078A1411551056105710509F0846080936E
:1051B000541110923F11109240111092411110920F
:1051C000421110924C1110924D1110924E111092EA
:1051D0004F118DA19EA1AFA1B8A5809355119093B9
:1051E0005611A0935711B093581100271127980119
:1051F000081B190B2A0B3B0B00933B1110933C111E
:1052000020933D1130933E110093371110933811C4
:105210002093391130933A110093331110933411C4
:10522000209335113093361100932F1110933011C4
:105230002093311130933211440C551C661C771C9D
:1052400040921F11509220116092211170922211F0
:10525000CC0CDD1CEE1CFF1CC0922311D09224113B
:10526000E0922511F0922611440F551F661F771FFB
:1052700040932711509328116093291170932A119C
:1052800049A15AA16BA17CA1440F551F661F771F2E
:1052900040932B1150932C1160932D1170932E116C
:1052A000880F991FAA1FBB1F80931B1190931C117D
:1052B000A0931D11B0931E111092591110925A1102
:1052C00010925B1110925C118AA59BA5ACA5BDA59F
:1052D0008093501190935111A0935211B093531198
:1052E0008EA59FA5A8A9B9A98093431190934411B5
:1052F000A0934511B093461129A53EA980911A119A
:10530000381309C040913602822F022E000C990BEF
:105310004817190631F030931A11209336020E9473
:1053200090230E9474168FEF9FEFDC018093370269
:1053300090933802A0933902B0933A024BAD5CAD22
:105340006DAD7EAD409348115093491160934A1161
:1053500070934B1188E69EE121E0FC01C590D59049
:10536000E590F490C416D506E606F70648F476955F
:10537000679557954795220F04968816990669F701
:1053800020934711403251056105710520F440E238
:1053900050E060E070E04052510961097109411527
:1053A00098E059076105710508F46EC0A4E05A9FA2
:1053B000C00111248859954EFC01329625913491F3
:1053C000AA27439FF001429FE10DFA1F0694EA1FAE
:1053D000FA1F1124AF0170E060E0FC01C590D49089
:1053E000F12CE12CC41AD50AE60AF70AC0925D1125
:1053F000D0925E11E0925F11F092601180915D1188
:1054000090915E11A0915F11B0916011AC01BD014E
:105410000097F1E0AF07B10520F04FEF5FEF60E0DC
:1054200070E0841B950BA60BB70B80935D119093D6
:105430005E11A0935F11B0936011F8948091840085
:10544000909185004096BA94BB2009F43DC0240E8B
:10545000351E2816390608F4BCC9309289002092FE
:1054600088007894DF91CF911F910F91FF90EF907A
:10547000DF90CF90BF909F908F907F906F905F90C4
:105480004F903F902F900895DB01CA01B695A795E4
:10549000979587958C7F8859994EFC01C590D4903B
:1054A000FC013296259134914770429FC001439F81
:1054B000900D112433E0969587953A95E1F7C81A37
:1054C000D90AF12CE12C92CF1C01C7CF80EDC82E58
:1054D00087E0D82EE12CF12CA9CB1F920F920FB6AA
:1054E0000F9211240BB60F922F933F934F935F931C
:1054F0006F937F938F939F93AF93BF93EF93FF939C
:1055000048E251E064E271E082E090E00E94FE181F
:10551000FF91EF91BF91AF919F918F917F916F918B
:105520005F914F913F912F910F900BBE0F900FBE47
:105530000F901F9018951F920F920FB60F92112483
:105540000BB60F922F933F934F935F936F937F937D
:105550008F939F93AF93BF93EF93FF9348EA50E0ED
:1055600064EA70E081E090E00E94FE18FF91EF9104
:10557000BF91AF919F918F917F916F915F914F916B
:105580003F912F910F900BBE0F900FBE0F901F9069
:1055900018951F920F920FB60F9211240BB60F920F
:1055A0002F933F934F935F936F937F938F939F932B
:1055B000AF93BF93EF93FF9348E950E064E970E045
:1055C00090E080E00E94FE18FF91EF91BF91AF91B3
:1055D0009F918F917F916F915F914F913F912F910B
:1055E0000F900BBE0F900FBE0F901F901895CF938A
:1055F000DF9390916F00292F227091FF05C0909149
:105600006F009D7F90936F0094E0899FA00111240B
:10561000FA01EC59FE4E60817181828193812223CF
:1056200029F020916F00226020936F00EA01C95495
:10563000D84F0E946FE2288139814A815B810E94A4
:10564000CEE2DF91CF9108958F929F92AF92BF9259
:10565000CF92DF92EF92FF920F931F93CF93DF933E
:10566000CDB7DEB72C970FB6F894DEBF0FBECDBF17
:1056700020919A13222309F442C08A017B016C0114
:10568000CA010E94FA154B015C0119861A861B8615
:105690001C86F60180819181A281B38189839A83DE
:1056A000AB83BC83F70180819181A281B3818D831B
:1056B0009E83AF83B88720E030E0A901C501B40123
:1056C0000E9468E220E030E0A901882361F0CE0169
:1056D00001960E947E1C9B01AC01C501B4010E9491
:1056E000CEE29B01AC01F8016081718182819381DE
:1056F0000E9433E9F80160837183828393832C963F
:105700000FB6F894DEBF0FBECDBFDF91CF911F91D2
:105710000F91FF90EF90DF90CF90BF90AF909F9050
:105720008F900895FC0120E03EE2DB014D91BD0128
:10573000403249F0283011F430833196DB01119763
:105740004C91408331962F5F2B3079F7108208956A
:1057500061E0FC0180810C94BCB58EBD0DB407FEE8
:10576000FDCF08958FEF8EBD0DB407FEFDCF8EB532
:1057700008958F929F92AF92BF92EF92FF920F93F4
:105780001F93CF937C01C62F49015A01FC019281DE
:10579000892F806A86958CBD90FD03C081E096308C
:1057A00009F480E08DBD60E0F70180810E94BCB506
:1057B0008CE291E00E945BAF8C2F80640E94AD2B45
:1057C00008E110E0D501C401002E04C0B695A795EC
:1057D000979587950A94D2F70E94AD2B085011092E
:1057E000083FFFEF1F0771F785E9CC2321F087E819
:1057F000C83009F08FEF0E94AD2BCC3011F40E941D
:10580000B22BC0E00E94B22BF701838387FF04C054
:10581000CF3F11F0CF5FF6CFCF911F910F91FF9047
:10582000EF90BF90AF909F908F9008950F931F932C
:10583000CF93DF93EC0189018C81833039F089E0CB
:10584000440F551F661F771F8A95D1F79A01AB0148
:1058500068E1CE010E94B92B882319F086E0898384
:105860003AC08EEF8EBDF801C8019E5F0DB407FEF1
:10587000FDCF20812EBD0DB407FEFDCF21812EBDB1
:105880003296E817F90791F70DB407FEFDCF8FEFB9
:105890000E94AD2B8FEF0E94AD2B0E94B22B8B8309
:1058A0008F71853099F488E592E00E945BAF182FE4
:1058B00087E11123A1F220E030E0A9016DE0CE01E3
:1058C0000E94B92B882361F086E1C9CF83E18983E7
:1058D000CE010E94A82BCE010E94A82B10E007C089
:1058E0000E94B22B8111F0CFCE010E94A82B812FF4
:1058F000DF91CF911F910F910895CF938091B316AF
:10590000C1E08823A1F04091AB165091AC16609194
:10591000AD167091AE162BEA34E18091B4169091D9
:10592000B5160E94162CC82F811104C0C0E08C2F20
:10593000CF9108954091AF165091B0166091B11675
:105940007091B216411551056105710591F02BEA70
:1059500034E18091B4169091B5160E94162C8823DC
:1059600029F31092AF161092B0161092B116109241
:10597000B2161092B316DBCFEF92FF920F931F93E4
:10598000CF93DF93EC0179018C81833039F089E08A
:10599000440F551F661F771F8A95D1F79A01AB01F7
:1059A00061E1CE010E94B92B882339F084E089831C
:1059B000CE010E94A82B80E03BC00E9498208B0162
:1059C0000E94B22B8B838F3F81F40E949820601B32
:1059D000710B6D327140A0F381E18983CE010E9489
:1059E000A82B8FEF0E94AD2BE6CF8E3F11F08FE0FA
:1059F000F4CF8FEF8EBDF701D701A150BE4F0DB48C
:105A000007FEFDCF9EB591938EBDAE17BF07B9F7C8
:105A10000DB407FEFDCF8EB58C930E94B22B0E9471
:105A2000B22BCE010E94A82B8FEF0E94AD2B81E0FC
:105A3000DF91CF911F910F91FF90EF900895CF923A
:105A4000DF92EF92FF92CF936B017C01C42F809184
:105A5000AB169091AC16A091AD16B091AE168C1508
:105A60009D05AE05BF0501F10E947D2C811108C086
:105A7000C0E08C2FCF91FF90EF90DF90CF900895F2
:105A80002BEA34E1B701A6018091B4169091B516C6
:105A90000E94BC2C882361F3C092AB16D092AC1646
:105AA000E092AD16F092AE16CC2321F081E0809307
:105AB000B316DFCFC1E0DDCF4F925F926F927F923E
:105AC0008F929F92AF92BF92CF92DF92EF92FF920E
:105AD0000F931F93CF93DF93EC0142305105610583
